:100000000C9475010C949D010C949D010C949D0120
:100010000C949D010C949D010C949D010C949D01E8
:100020000C949D010C949D010C9409100C9490105B
:100030000C949D010C949D010C949D010C949D01C8
:100040000C949D010C949D010C949D010C949D01B8
:100050000C949D010C949D010C949D010C949408AA
:100060000C949D010C94D80B0C945B0C0C949D018A
:100070000C949D010C949D010C949D010C949D0188
:100080000C949D010C949D010C949D010C949D0178
:100090000C949D010C949D010C949D010C949D0168
:1000A0000C949D010C949D010C949D0172756E2D14
:1000B0006272696467650A000A000A0000000000B5
:1000C000240027002A002D00300000000000250039
:1000D00028002B002E003100000000002300260025
:1000E00029002C002F000404040404030405020268
:1000F00002020403020202020606060606060404C1
:1001000002020204040802011040804010204080D6
:10011000408008020401804020100201108010205D
:1001200040400000000200080E0000030401000B24
:1001300000000000000000000000000000000000BF
:10014000070605040100080A0B0C0D090403090445
:1001500041726475696E6F2059756E0041726475E5
:10016000696E6F204C4C43001201000200000040F9
:10017000412341800001010200011201000202003E
:1001800000404123418000010102000100C1808143
:10019000C1080B0002020201000904000001020272
:1001A00000000524001001052401010104240206B9
:1001B0000524060001070581031000400904010021
:1001C000020A000000070502024000000705830242
:1001D00040000005010902A1010901A100850105F6
:1001E000091901290315002501950375018102955F
:1001F000017505810305010930093109381581258B
:100200007F750895038106C0C005010906A1018517
:1002100002050719E029E7150025017501950881F8
:100220000295017508810395067508150025650579
:1002300007190029658100C00904020001030000BC
:100240000009210101000122650007058403400027
:100250000100000000000000002A2B280000000020
:10026000000000000000000000000000000000008E
:10027000002C9EB4A0A1A2A434A6A7A5AE362D370B
:1002800038271E1F20212223242526B333B62EB75C
:10029000B89F8485868788898A8B8C8D8E8F909174
:1002A00092939495969798999A9B9C9D2F3130A301
:1002B000AD350405060708090A0B0C0D0E0F1011C9
:1002C00012131415161718191A1B1C1DAFB1B0B54F
:1002D00000004002E606700877087E0889080E0CC8
:1002E0008D0C450FF314F915DF0611241FBECFEF57
:1002F000DAE0DEBFCDBF11E0A0E0B1E0ECEAFEE263
:1003000002C005900D92AC36B107D9F712E0ACE609
:10031000B1E001C01D92A23BB107E1F712E0C8EEC7
:10032000D2E004C02297FE010E944517C23DD107CA
:10033000C9F70E94DE0C0C9449170C940000FB01D5
:10034000DC0102C001900D9241505040D8F7089551
:10035000FB01DC0101900D920020E1F708950F935D
:100360001F93CF93DF9300E010E0C1E0D0E088E07E
:100370000E94680A019711F40F5F1F4F64E670E056
:1003800080E090E00E9440092196CF31D10579F7B5
:10039000063011055CF08DE061E00E94350A8CE6C4
:1003A00091E060E071E044E051E00AC08DE060E07F
:1003B0000E94350A8CE691E060E071E046E051E091
:1003C0000E941905DF91CF911F910F91089580919F
:1003D00075019091760140E950ED63E070E026E010
:1003E0000E94C80A8CE691E00E94700588E060E0F7
:1003F0000E94A8098DE061E00E94A80908950F936A
:100400001F93CF93DF93DC011596ED91FC91169726
:10041000A081B181EC016C812D913C91CF01F9015A
:100420000995ED81FE81A081B1812D913C91CF0193
:100430006B81F9010995DF91CF911F910F9108957B
:10044000CF93DF93EC010BC0ED81FE81A081B181E0
:1004500016962D913C911797CF01F9010995ED81E1
:10046000FE81A081B18114962D913C911597CF0109
:10047000F9010995181619063CF3DF91CF910895FB
:1004800010926C0187EA91E0909372018093710160
:10049000109273011092740190937601809375010C
:1004A0000895AF92BF92CF92DF92EF92FF920F9397
:1004B0001F93CF93DF93EC018B010E94DC085B015B
:1004C0006C01780100E010E0ED81FE81A081B18136
:1004D00016962D913C911797CF01F90109959C0132
:1004E00097FF0DC00E94DC086A197B098C099D09E1
:1004F0006E157F058007910738F32FEF3FEFC90195
:10050000DF91CF911F910F91FF90EF90DF90CF90EF
:10051000BF90AF9008952F923F924F925F926F924B
:100520007F928F929F92AF92BF92CF92DF92EF9283
:10053000FF920F931F93DF93CF93CDB7DEB72F9723
:100540000FB6F894DEBF0FBECDBF3C016A877B8734
:100550005B834A832C873D871D830C83EE86FF8651
:10056000DF82CE82B986A88654016801C40ED51EEA
:100570008E819F81C80ED91ED9822D2C332436C27C
:10058000EFEFFFEFD3011496FC93EE9313971596BC
:10059000ED91FC911697A081B1812D913C91CF01F5
:1005A0006FEFF9010995D30113968D919C911497E2
:1005B0002FEF8227082E8295807F8025092E982F85
:1005C00082958F700826869598278927880F880F2F
:1005D000880F8025F301948383830580F681E02DC5
:1005E000A081B1812D913C91CF01D3016C91F90192
:1005F0000995F3012081838194818227082E8295B9
:10060000807F8025092E982F82958F7008268695E9
:1006100098278927880F880F880F8025D301149683
:100620009C938E9313971596ED91FC911697A0814C
:10063000B1812D913C91CF016981F9010995F301B7
:10064000838194818225082E8295807F8025092EC2
:10065000982F82958F700826869598278927880F6E
:10066000880F880F8025D30114969C938E9313973F
:100670001596ED91FC911697A081B1812D913C9139
:10068000CF016C2DF9010995F301838194818C25AB
:10069000082E8295807F8025092E982F82958F7055
:1006A0000826869598278927880F880F880F802528
:1006B000D30114969C938E9313972A853B85C90189
:1006C0004C0100E010E02CC0D3011596ED91FC9197
:1006D0001697A081B1812D913C91CF01F4016081E9
:1006E000F9010995D4012D914D01F3018381948184
:1006F0008227082E8295807F8025092E982F82954B
:100700008F700826869598278927880F880F880F6D
:100710008025D30114969C938E9313970F5F1F4FE0
:10072000EA81FB810E171F0708F4CECF8C859D85CB
:100730009C01490100E010E02CC0D3011596ED9119
:10074000FC911697A081B1812D913C91CF01F401CC
:100750006081F9010995D4012D914D01F301838147
:1007600094818227082E8295807F8025092E982FDC
:1007700082958F700826869598278927880F880F7D
:10078000880F8025D30114969C938E9313970F5F47
:100790001F4FEC81FD810E171F0708F4CECF8E8509
:1007A0009F859C01490100E010E02CC0D301159603
:1007B000ED91FC911697A081B1812D913C91CF01D3
:1007C000F4016081F9010995D4012D914D01F301E6
:1007D000838194818227082E8295807F8025092E2F
:1007E000982F82958F700826869598278927880FDD
:1007F000880F880F8025D30114969C938E931397AE
:100800000F5F1F4FEE81FF810E171F0708F4CECF39
:10081000C3010E94FF01C30164E670E00E9451021F
:100820008F3F910509F0D8C08FEF9FEF2FEF822700
:10083000082E8295807F8025092E982F82958F70B3
:100840000826869598278927880F880F880F802586
:10085000D30114969C938E931397C30165E070E0C7
:100860000E945102F3014081242F30E08217930748
:1008700009F0B2C0838194818427082E8295807FFD
:100880008025092E982F82958F70082686959827A7
:100890008927880F880F880F8025D30114969C9391
:1008A0008E931397C3016AE070E00E9451024C01DD
:1008B00097FD92C0F301838194818825082E82954B
:1008C000807F8025092E982F82958F700826869527
:1008D00098278927880F880F880F8025D3011496C1
:1008E0009C938E931397C3016AE070E00E945102BB
:1008F0009C0197FD71C0F301838194818227082EAA
:100900008295807F8025092E982F82958F700826EA
:10091000869598278927880F880F880F8025D3010F
:1009200014969C938E931397582C44247901E40CCD
:10093000F51C00E010E02BC0C30165E070E00E94F0
:1009400051029C0197FD21C00A151B0528F4E8857A
:10095000F985E00FF11F8083F30183819481822761
:10096000082E8295807F8025092E982F82958F7082
:100970000826869598278927880F880F880F802555
:10098000D30114969C938E9313970F5F1F4F0E15F0
:100990001F0590F2C30165E070E00E9451024C0116
:1009A00097FD1AC0C30165E070E00E9451029C01EE
:1009B00097FD12C0982D8827820F931FF301238182
:1009C00034812817390741F480818F5F8083AE140A
:1009D000BF04A8F0570113C0339464E670E080E0D0
:1009E00090E00E944009C3010E942002D3011896A2
:1009F0008C91381608F4C4CDAA24AA94BA2CC50147
:100A00002F960FB6F894DEBF0FBECDBFCF91DF910A
:100A10001F910F91FF90EF90DF90CF90BF90AF901C
:100A20009F908F907F906F905F904F903F902F900E
:100A300008956F927F928F929F92AF92BF92CF92C2
:100A4000DF92EF92FF920F931F93DF93CF9300D02B
:100A500000D000D0CDB7DEB76C018B017A013E012A
:100A60000894611C711CC30168E071E00E9483124C
:100A7000C301B8010E944012C3016AE071E00E9404
:100A80004012C301B7010E94401269817A814D81F1
:100A90005E81C60120E030E000E010E0EE24FF249B
:100AA000CC24DD24AA24BB24882499240E948B0210
:100AB000C3010E949C1226960FB6F894DEBF0FBEAB
:100AC000CDBFCF91DF911F910F91FF90EF90DF90FD
:100AD000CF90BF90AF909F908F907F906F90089530
:100AE0002F923F924F925F926F927F928F929F923E
:100AF000AF92BF92CF92DF92EF92FF920F931F932C
:100B0000DF93CF93CDB7DEB72E970FB6F894DEBF45
:100B10000FBECDBF3C01DC0117968C91179788233F
:100B200009F0D2C081E017968C93C3010E94200285
:100B300068EE73E080E090E00E944009D3011596D2
:100B4000ED91FC911697A081B18114962D913C9165
:100B50001597CF01F90109951816190634F3A5E088
:100B60002A2E312C2C0E3D1EFAE04F2E512C4C0E0D
:100B70005D1ED101E1E2F1E085E001900D9281502E
:100B8000E1F781E0F3018087C301B10145E050E066
:100B900020E030E000E010E0EE24FF24CC24DD244F
:100BA000AA24BB24882499240E948B02D301159681
:100BB0008D919C91169763E00E94440D6AEF70E05E
:100BC00080E090E00E944009F301858196816AEB04
:100BD00070E00E94210D6AEF70E080E090E00E94DA
:100BE0004009D30115968D919C91169768EB70E0A2
:100BF0000E94210D64EF71E080E090E00E944009C6
:100C0000F301858196816CEA70E00E94210D64EF0A
:100C100071E080E090E00E944009C3010E94200240
:100C2000D201ECE1F1E085E001900D928150E1F715
:100C3000E2E3D3011896EC93C301B20145E050E022
:100C400020E030E000E010E0EE24FF24CC24DD249E
:100C50005E010894A11CB11CE4E08E2E912C0E9430
:100C60008B029C01FFEF8F3F9F0739F468EE73E022
:100C700080E090E00E9440097CCF89818111FFCF04
:100C800024303105C1F48C8190E0805D94412A814B
:100C900044E6249F90011124820F931F2B814AE088
:100CA000249F90011124820F931FD30112969C93CD
:100CB0008E93119705C084E690E0F30192838183BF
:100CC00082E3D30118968C932E960FB6F894DEBF6C
:100CD0000FBECDBFCF91DF911F910F91FF90EF908D
:100CE000DF90CF90BF90AF909F908F907F906F904C
:100CF0005F904F903F902F900895CF93DF93EC013A
:100D00008A89882341F48D899E89009711F00E9479
:100D1000F10C81E08A8BDF91CF910895CF93DF931F
:100D2000EC010E947D0688899989009721F00E9434
:100D3000F10C198A188ADF91CF910895FC018AE29B
:100D400091E091838083CF010E948E0608958130C7
:100D5000910559F56F5F7F4F89F510927A011092D6
:100D6000790188EE93E0A0E0B0E080937B0190935E
:100D70007C01A0937D01B0937E018AE291E0909383
:100D80007801809377018CE691E0909384018093C1
:100D900083011092850110928601109288011092B1
:100DA000870181E0809389010895892B39F46F5F71
:100DB0007F4F21F487E791E00E949E06089580E02E
:100DC00090E06FEF7FEF0E94A706089581E090E02A
:100DD0006FEF7FEF0E94A70608956F927F928F9228
:100DE0009F92AF92BF92CF92DF92EF92FF920F93BA
:100DF0001F93DF93CF9300D0CDB7DEB73C01FC014A
:100E000086858823E9F4178680E7898380E28A83D0
:100E1000A088B18884859585BE016F5F7F4F42E0D1
:100E200050E020E030E000E010E0EE24FF24CC248D
:100E3000DD24E0E28E2E912C0E948B02F301868746
:100E40000F900F90CF91DF911F910F91FF90EF9036
:100E5000DF90CF90BF90AF909F908F907F906F90DA
:100E60000895CF93DF93EC010E94ED068E858823D1
:100E700019F42FEF3FEF08C08F85E889F989E80F53
:100E8000F11D8081282F30E0C901DF91CF910895B5
:100E9000CF93DF93EC010E94ED068E85882319F431
:100EA0002FEF3FEF0CC081508E878F85E889F9893D
:100EB000E80FF11D9081292F30E08F5F8F87C901E6
:100EC000DF91CF9108950F931F938C010E94ED063F
:100ED000F801868590E01F910F9108958F929F925F
:100EE000AF92BF92CF92DF92EF92FF920F931F9338
:100EF000CF93DF93EC018A898823B1F46D897E89D1
:100F00004B898C859D8550E020E030E000E010E0CA
:100F1000EE24FF24CC24DD24AA24BB248824992495
:100F20000E948B0281E08B8BDF91CF911F910F91FB
:100F3000FF90EF90DF90CF90BF90AF909F908F90F9
:100F400008958F929F92AF92BF92CF92DF92EF92CD
:100F5000FF920F931F93DF93CF9300D0CDB7DEB7EF
:100F6000DC0152968C9152978823E9F080E58983C1
:100F70006A831C968D919C911D97BE016F5F7F4F78
:100F800042E050E020E030E000E010E0EE24FF24FA
:100F9000CC24DD24AA24BB24882499240E948B021B
:100FA00081E090E01BC053968C9153975596ED913C
:100FB000FC915697E80FF11D60838F5F53968C93D9
:100FC000539754969C915497891741F4ED91FC9155
:100FD00011970284F385E02DCD0109950F900F90B4
:100FE000CF91DF911F910F91FF90EF90DF90CF9005
:100FF000BF90AF909F908F9008956F927F928F9245
:101000009F92AF92BF92CF92DF92EF92FF920F9397
:101010001F93CF93DF937C016B013A01DC01529661
:101020008C91882309F44AC08A010F5F1F4FC801C1
:101030000E94F40CEC01FC0180E58193CF01B60124
:10104000A3010E949F01F70184859585BE01A80137
:1010500020E030E000E010E0EE24FF24CC24DD248A
:10106000AA24BB24882499240E948B02209719F07B
:10107000CE010E94F10CC30124C0D70153969C916C
:1010800053975596ED91FC915697E90FF11DD601B6
:101090008C9180839F5FF701938B8489981741F42B
:1010A0000190F081E02D0284F385E02DC7010995C0
:1010B0000894C11CD11C0894610871086114710462
:1010C000E1F6DF91CF911F910F91FF90EF90DF90AC
:1010D000CF90BF90AF909F908F907F906F9008952A
:1010E0008CE691E090938F0180938E0108958CE6B9
:1010F00091E0909391018093900108950F9382E97C
:1011000091E060E040E020E000E00E94810C0F915F
:1011100008950F9388E991E060E040E020E000E06E
:101120000E94810C0F9108951F920F920FB60F929B
:1011300011242F933F938F939F93AF93BF938091ED
:10114000A2019091A301A091A401B091A5013091B9
:10115000A6010196A11DB11D232F2D5F2D3720F073
:101160002D570196A11DB11D2093A6018093A201C8
:101170009093A301A093A401B093A50180919E0137
:1011800090919F01A091A001B091A1010196A11D94
:10119000B11D80939E0190939F01A093A001B093F5
:1011A000A101BF91AF919F918F913F912F910F908E
:1011B0000FBE0F901F9018958FB7F8942091A20141
:1011C0003091A3014091A4015091A5018FBFB901B5
:1011D000CA010895789484B5826084BD84B5816025
:1011E00084BD85B5826085BD85B5816085BDEEE62F
:1011F000F0E0808181608083E1E8F0E0108280810E
:1012000082608083808181608083E0E8F0E080817B
:1012100081608083E1E9F0E0808182608083808169
:1012200081608083E0E9F0E0808181608083E1EC8F
:10123000F0E080818460808380818260808380810F
:1012400081608083E3ECF0E0808181608083E0EC6A
:10125000F0E0808182608083E2ECF0E08081816058
:101260008083EAE7F0E0808184608083808182600F
:1012700080838081816080838081806880830895FD
:10128000EF92FF920F931F93CF93DF937B018C011B
:101290003FB7F89480919E0190919F01A091A00189
:1012A000B091A10126B5A89B05C02F3F19F001966A
:1012B000A11DB11D3FBFBA2FA92F982F8827820FDC
:1012C000911DA11DB11D52E0880F991FAA1FBB1FC0
:1012D0005A95D1F7EC0130C00E94B8143FB7F8948A
:1012E00080919E0190919F01A091A001B091A101D8
:1012F00026B5A89B05C02F3F19F00196A11DB11D71
:101300003FBFBA2FA92F982F8827820F911DA11DAB
:10131000B11D32E0880F991FAA1FBB1F3A95D1F764
:101320008C1B9D0B885E9340B8F20894E108F1088D
:1013300001091109C851DC4FE114F104010511053F
:1013400059F6DF91CF911F910F91FF90EF90089583
:10135000CF93DF93482F50E0CA018C5F9E4FFC0172
:1013600034914A515F4FFA018491882369F190E0EA
:10137000880F991FFC01E454FF4FA591B491FC0123
:10138000E653FF4FC591D491662351F42FB7F894DB
:101390008C91932F909589238C93888189230BC0FE
:1013A000623061F42FB7F8948C91932F9095892334
:1013B0008C938881832B88832FBF06C09FB7F894B6
:1013C0008C91832B8C939FBFDF91CF9108958830B0
:1013D00071F1893068F4823031F1833020F481304A
:1013E00009F042C01DC0833089F08430E9F512C095
:1013F0008B3059F18C3028F48930E9F08A30A1F52E
:101400001EC08C3031F18E3079F529C0809180007A
:101410008F7703C0809180008F7D80938000089536
:1014200084B58F7702C084B58F7D84BD0895809187
:1014300090008F7707C0809190008F7D03C08091CE
:101440009000877F8093900008958091C0008F77EF
:1014500003C08091C0008F7D8093C000089580916B
:10146000C200877F8093C2000895FF920F931F935D
:10147000F62E482F50E0CA018E5D9E4FFC0124914C
:10148000CA018C5F9E4FFC0114914A515F4FFA01D3
:1014900004910023C9F0222319F0822F0E94E7094A
:1014A000E02FF0E0EE0FFF1FE653FF4FA591B49140
:1014B0009FB7F894FF2021F48C911095812302C0EE
:1014C0008C91812B8C939FBF1F910F91FF9008955A
:1014D0000F931F93482F50E0CA018E5D9E4FFC0171
:1014E0002491CA018C5F9E4FFC0104914A515F4FC9
:1014F000FA011491112319F420E030E015C02223E1
:1015000019F0822F0E94E709812F90E0880F991F20
:1015100088529F4FFC01A591B4918C9120E030E05E
:10152000802311F021E030E0C9011F910F9108954F
:10153000DC015C968C915C97FD01E80FF11DE35A8C
:10154000FF4F20815C968C915C9790E001968F73A1
:1015500090705C968C935C975696ED91FC915797A2
:1015600020835096ED91FC91519780818064808317
:101570005B969C915B975C968C915C97981739F47D
:101580005296ED91FC91539780818F7D80830895D1
:10159000DF92EF92FF920F931F93CF93DF93EC01B3
:1015A0007A018B01D22EE889F98982E0808340306C
:1015B00081EE580780E0680780E07807A1F060E0DE
:1015C00079E08DE390E0A80197010E942117215056
:1015D000304040405040569547953795279580E1DB
:1015E0002030380798F0E889F989108260E874E8BB
:1015F0008EE190E0A80197010E9421172150304010
:10160000404050405695479537952795EC85FD8588
:101610003083EE85FF852083188EEC89FD89D0828A
:10162000EA89FB89808180618083EA89FB898081E6
:1016300088608083EA89FB89808180688083EA8969
:10164000FB8980818F7D8083DF91CF911F910F91E6
:10165000FF90EF90DF900895FC01218D828D30E0A6
:10166000205C3F4F281B31092F733070C90108954A
:10167000FC01918D828D981719F42FEF3FEF06C072
:10168000828DE80FF11D858D282F30E0C901089566
:10169000DC0159969C9159975A968C915A979817B4
:1016A00019F42FEF3FEF10C05A968C915A97FD0115
:1016B000E80FF11D958D5A968C915A978F5F8F7315
:1016C0005A968C93292F30E0C9010895CF93DF9368
:1016D000EC01888D882361F419C08C9185FF0AC0C4
:1016E000E889F989808185FF05C0CE010E94980AAA
:1016F000AA89BB898C9185FD05C0E889F98980811B
:1017000086FD04C00FB607FEE8CFF4CFDF91CF917E
:1017100008950F931F93CF93DF93EC01062F9B8DBA
:101720008C8D981791F5E889F989808185FF2DC006
:10173000EE89FF896083E889F989808180648083EC
:101740001DC00FB607FC08C0E889F989808185FFB4
:1017500003C0CE010E94980A8C8D181791F38B8DCF
:10176000FE01E80FF11DE35AFF4F00831B8FEA894A
:10177000FB8980818062808381E0888F81E090E0B6
:10178000DF91CF911F910F9108951B8D1F5F1F73E4
:10179000E3CF81E59CE0892B51F080E090E0892B3C
:1017A00031F00E94510C882311F00E94000008952E
:1017B0001F920F920FB60F9211242F938F939F9326
:1017C000EF93FF93E091B701F091B801808182FD22
:1017D00016C0E091BD01F091BE0120819091C00141
:1017E0009F5F9F738091C101981771F0E091C001D4
:1017F000F0E0E955FE4F258F9093C00105C0E091C0
:10180000BD01F091BE01E081FF91EF919F918F9119
:101810002F910F900FBE0F901F9018951092AA0154
:101820001092A90188EE93E0A0E0B0E08093AB01B4
:101830009093AC01A093AD01B093AE018AE391E027
:101840009093A8018093A7018DEC90E09093B40150
:101850008093B3018CEC90E09093B6018093B50136
:1018600088EC90E09093B8018093B70189EC90E008
:101870009093BA018093B9018AEC90E09093BC01F7
:101880008093BB018EEC90E09093BE018093BD01EC
:101890001092C0011092C1011092C2011092C301B6
:1018A000089587EA91E00E942C0B20E0892B09F033
:1018B00021E0822F08951F920F920FB60F921124EC
:1018C0002F933F934F935F936F937F938F939F9348
:1018D000AF93BF93EF93FF9387EA91E00E94980A3A
:1018E000FF91EF91BF91AF919F918F917F916F91F8
:1018F0005F914F913F912F910F900FBE0F901F90CE
:1019000018950F93FC018AE491E0918380836283B0
:101910004383248305830F9108958AE491E0909393
:1019200045028093440210924602109247021092A0
:1019300048021092490208958F929F92AF92BF92EF
:10194000CF92DF92EF92FF920F931F93CF93DF938B
:101950004C016B017C01AA24BB24C0E0D0E0C6018D
:10196000F70162814AE050E00E94DB0D8C01C60164
:101970006EE20E94440D080F191FA00EB11E2196A1
:101980000894E11CF11CC330D10549F7C601F401EC
:1019900065814AE050E00E94DB0D9501280F391F58
:1019A000C901DF91CF911F910F91FF90EF90DF90D0
:1019B000CF90BF90AF909F908F900895CF93DF937B
:1019C0000E94EA0882E592E00E94460F0E94E70129
:1019D000C9ECDBE00E94AF012097E1F30E94C90B44
:1019E000F9CF0E943F1308950E94A2120895CF924A
:1019F000DF92EF92FF920F931F93CF93DF937C01BF
:101A00006B018A01C0E0D0E00FC0D6016D916D017D
:101A1000D701ED91FC910190F081E02DC70109956E
:101A2000C80FD91F015010400115110571F7CE01E3
:101A3000DF91CF911F910F91FF90EF90DF90CF90AA
:101A40000895EF92FF920F931F93CF93DF937C0142
:101A50008B01C0E0D0E0F8010F5F1F4F6491662357
:101A600059F0D701ED91FC910190F081E02DC70173
:101A70000995C80FD91FEFCFCE01DF91CF911F91EC
:101A80000F91FF90EF900895DC01ED91FC91019092
:101A9000F081E02D09950895CF93DF93EC01611556
:101AA000710519F420E030E00FC0DB010D9000203B
:101AB000E9F71197A61BB70BE881F9810280F38142
:101AC000E02DAD0109959C01C901DF91CF910895E9
:101AD0004F925F927F928F929F92AF92BF92CF92DE
:101AE000DF92EF92FF920F931F93DF93CF93CDB7C7
:101AF000DEB7A1970FB6F894DEBF0FBECDBF2C01A5
:101B0000742ECB01223008F42AE019A231E2C32E50
:101B1000D12CCC0EDD1E822E9924AA24BB24672D45
:101B2000752FA50194010E94211779018A01C8012E
:101B3000B701A50194010E940217472D461B089486
:101B4000C108D1084A3014F4405D01C0495CF60177
:101B50004083E114F1040105110521F07E2C5F2D75
:101B6000C801DDCFC201B6010E944C0DA1960FB68F
:101B7000F894DEBF0FBECDBFCF91DF911F910F91C3
:101B8000FF90EF90DF90CF90BF90AF909F908F909D
:101B90007F905F904F900895DC012115310541F44D
:101BA000ED91FC910190F081E02D642F099508954D
:101BB0000E94680D0895EF92FF920F931F939A0170
:101BC000E62EFF2400E010E0B801A7010E94CC0D32
:101BD0001F910F91FF90EF900895282F80914C0254
:101BE0008823C1F057FF1AC015C0289890934B0264
:101BF0008091F1008193E217F307B9F74115510580
:101C000039F08091F200882319F48BE68093E80084
:101C1000AFBF02C04FEF5FEFCA010895AFB7F894AE
:101C200027702093E9008091F200282F30E02417DC
:101C300035070CF4A901FB019B01240F311D94E62B
:101C4000DACFDF93CF930F92CDB7DEB7BE016F5FD0
:101C50007F4F41E050E00E94ED0D019719F02FEF0A
:101C60003FEF03C08981282F30E0C9010F90CF9149
:101C7000DF910895FF920F931F93F82E142F052FD5
:101C800040914F0250915002212F302FC901DC01A9
:101C9000FB016EEF29C0F7FE02C0949101C0908154
:101CA00020914D0230914E0224173507ACF48091FB
:101CB000E8008570E1F38091E80082FF03C02FEF18
:101CC0003FEF17C09093F100C90101968F73907098
:101CD000892B11F46093E8002F5F3F4F30934E0241
:101CE00020934D02119731961097A9F6812F902FCE
:101CF0009C01C9011F910F91FF9008951F93782FA8
:101D0000E92F162F20914D0230914E02A0914F02E3
:101D1000B09150022A173B07C4F48091E800857007
:101D2000E1F38091E80082FD16C0812F90E00196DA
:101D3000880F991F8093F100C90101968F739070ED
:101D4000892B19F48EEF8093E8002F5F3F4F30937B
:101D50004E0220934D0220914D0230914E022A17DF
:101D60003B07A4F48091E8008570E1F38091E800DE
:101D700082FD12C083E08093F100C90101968F7348
:101D80009070892B19F48EEF8093E8002F5F3F4FFE
:101D900030934E0220934D0240914D0250914E02DD
:101DA000872F9E2FFC0170E06EEF43C094914A177D
:101DB0005B07A4F48091E8008570E1F38091E8006E
:101DC00082FF02C020E00DC09093F100CA0101968D
:101DD0008F739070892B11F46093E8004F5F5F4F11
:101DE00021E04A175B07A4F48091E8008570E1F3D5
:101DF0008091E80082FF02C080E00DC01092F100E7
:101E0000CA0101968F739070892B11F46093E800DA
:101E10004F5F5F4F81E0319690E030E08223932363
:101E2000892B31F450934E0240934D0280E009C05B
:101E30007F5F711708F4BACF50934E0240934D0262
:101E400081E01F9108959C018091E80082FFFCCF02
:101E5000F901260F311D03C08091F1008193E21733
:101E6000F307D1F7289884E680934B028BEF809399
:101E7000E800CB0108958093E9008091F200882367
:101E800019F08AE38093E8000895089510924C02B7
:101E900081E08093D70080EA8093D80082E189BDF9
:101EA00009B400FEFDCF61E070E080E090E00E94A8
:101EB000400980E98093D8008CE08093E200109282
:101EC000E000559A209A08955F926F927F928F92C8
:101ED0009F92AF92BF92CF92DF92EF92FF920F93B9
:101EE0001F93CF93DF93E82E842E752E80914C02A2
:101EF000882371F18B01242F352FC901EC01AAEF42
:101F0000FA2EF7E09F2E9E20E0E45E2E8E2D90E0CC
:101F100070E2A72EB12CA822B9226AE3662E50E403
:101F2000C52ED12CC822D92258C09FB7F8949092C0
:101F3000E9008091E80085FD02C020E004C08091A6
:101F4000F200252D281B9FBF222361F4FA9419F477
:101F50002FEF3FEF4DC061E070E080E090E00E9425
:101F600040093BC0822F90E0C817D9070CF42C2FF2
:101F7000C21BD1094FB7F8949092E900A114B104A3
:101F800021F406C01092F10021502223D9F719C084
:101F9000E7FC03C0F801922F10C0C801322F06C021
:101FA000FC010196E491E093F10031503323C1F735
:101FB00006C081918093F10091509923D1F7020FCF
:101FC000111D8091E80085FF05C0209729F4C114F8
:101FD000D10411F06092E8004FBF209709F0A5CF1F
:101FE0005D9884E680934A02282D372DC9019C0113
:101FF000C901DF91CF911F910F91FF90EF90DF907A
:10200000CF90BF90AF909F908F907F906F905F9098
:1020100008951F920F920FB60F9211242F933F93A2
:102020004F935F936F937F938F939F93AF93BF93E0
:10203000EF93FF938091E1001092E100982F83FFCE
:102040000FC01092E90081E08093EB001092EC0049
:1020500082E38093ED0010924C0288E08093F000C0
:1020600092FF34C083E08093E9008091F2008823DE
:1020700019F08AE38093E8008FB7F89492E0909388
:10208000E9009091F2008FBF992321F083E592E05F
:102090000E94361580914A02882351F080914A02AD
:1020A000815080934A0280914A02882309F45D9A04
:1020B00080914B02882351F080914B028150809394
:1020C0004B0280914B02882309F4289AFF91EF91EB
:1020D000BF91AF919F918F917F916F915F914F9140
:1020E0003F912F910F900FBE0F901F9018950F9357
:1020F0001F93DF93CF930F92CDB7DEB719828E0176
:102100000F5F1F4FC8010E945D15C8010E94F6169F
:10211000898190E00F90CF91DF911F910F910895E9
:102120001F920F920FB60F921124EF92FF921F93FE
:102130002F933F934F935F936F937F938F939F93CF
:10214000AF93BF93EF93FF93DF93CF93CDB7DEB7FA
:102150006197DEBFCDBF1092E9008091E80083FF58
:1021600013C1FE0131969E01275F3F4F03C080914E
:10217000F1008193E217F307D1F7289884E6809362
:102180004B0282EF8093E800998197FF05C0809110
:10219000E80080FFFCCF03C08EEF8093E800292F7A
:1021A00030E0C90180769070892B09F0C6C08A8121
:1021B000882329F41092F1001092F100DAC08130E6
:1021C00009F4D7C0833009F4D4C0853049F4809134
:1021D000E80080FFFCCF8B8180688093E300C9C05A
:1021E000863009F080C01C81EF80F8841230C1F580
:1021F0001092E90010924E0210924D02109250027D
:1022000010924F020E94771099E0FE013996DF018B
:10221000292F1D922A95E9F799871A8791E09E87C1
:1022200090E8988B9AEF998B20914D0230914E0255
:10223000275F3F4F3C872B878D871092E9001092D4
:102240004E0210924D02F0925002E0924F0280E056
:10225000BF0149E050E00E943A0E0E94771089C009
:102260001092E90010924E0210924D02F09250022C
:10227000E0924F02123241F482E290E00E94EE16A8
:10228000892B09F47AC075C0113079F488E0E8161A
:10229000F10419F481E08093510280915102882366
:1022A00009F06FC0E8E6F1E017C0133009F065C02F
:1022B0008B81882319F4ECE4F1E00EC0823019F42C
:1022C00080E591E005C0813009F057C08CE591E0D0
:1022D0006BE00E947E0E4BC0449180E8BF0150E04D
:1022E0000E943A0E46C0873009F447C0883021F476
:1022F00081E08093F1003DC08930D9F523703070C2
:10230000232BD9F5EDE8F1E091E031E026E390935D
:10231000E9003093EB0084918093EC002093ED0072
:102320009F5F3196953099F78EE78093EA0010927F
:10233000EA008B8180934C021CC08F81988510929B
:10234000E90010924E0210924D0290935002809339
:102350004F028D81882329F4CE0101960E946915D0
:1023600006C0823051F4CE0101960E94BF15882329
:1023700021F08EEF8093E80007C081E28093EB00AC
:1023800003C0EAE7F1E0A8CF6196DEBFCDBFCF91F1
:10239000DF91FF91EF91BF91AF919F918F917F91CD
:1023A0006F915F914F913F912F911F91FF90EF900F
:1023B0000F900FBE0F901F9018950F931F93CF9300
:1023C000DF93EC018B016F5F7F4F888199810E94C1
:1023D000D713009711F480E005C0998388831B838D
:1023E0000A8381E0DF91CF911F910F910895CF93E0
:1023F000DF93EC0188819981892B29F08A819B8167
:102400008617970760F4CE010E94DD11882341F002
:102410008C819D81892B19F4E881F981108281E0FA
:10242000DF91CF910895EF92FF920F931F93CF9377
:10243000DF93EC017B016C817D81E114F104C1F03B
:102440004115510599F08A01060F171FB8010E9426
:10245000F711882369F0888199812C813D81820F51
:10246000931FB7010E94A8011D830C8381E001C066
:1024700080E0DF91CF911F910F91FF90EF90089531
:102480006115710511F480E00895DB010D900020C5
:10249000E9F71197A61BB70BAD010E94131208951F
:1024A000CF93DF93EC0188819981009711F00E940E
:1024B0003F13198218821D821C821B821A82DF91AF
:1024C000CF910895EF92FF920F931F93CF93DF93D5
:1024D000EC017B018A01BA010E94F711882321F4E3
:1024E000CE010E94501207C01D830C838881998100
:1024F000B7010E94A801CE01DF91CF911F910F91EA
:10250000FF90EF900895CF93DF93EC01198218822A
:102510001B821A821D821C826115710551F0DB013C
:102520000D900020E9F71197A61BB70BAD010E9493
:102530006212DF91CF910895FC01808191810E9408
:102540003F1308950F931F93CF93DF93BC01823005
:10255000910510F462E070E0E091B002F091B102F8
:1025600040E050E0A0E0B0E024C080819181861777
:102570009707D0F08617970771F48281938110979F
:1025800029F013969C938E9312972CC09093B102CE
:102590008093B00227C04115510519F084179507A3
:1025A00018F48D01AC01EF01DF01828193819C0160
:1025B000F9013097D1F641155105F9F0CA01861B92
:1025C000970B8430910580F48A819B810115110558
:1025D00021F0F8019383828304C09093B102809329
:1025E000B002FE01329645C0FE01E80FF91F61936B
:1025F00071930297998388833CC08091AE02909139
:10260000AF02892B41F480910E0190910F019093BC
:10261000AF028093AE02409110015091110141151B
:10262000510541F44DB75EB780910C0190910D01B9
:10263000481B590B2091AE023091AF022417350789
:10264000B0F4CA01821B930B8617970780F0AB0189
:102650004E5F5F4F8417950750F0420F531F509302
:10266000AF024093AE02F9016193719302C0E0E0C2
:10267000F0E0CF01DF91CF911F910F910895CF939B
:10268000DF939C01009709F48FC0EC0122971B8215
:102690001A826091B0027091B1026115710581F4E6
:1026A00088819981820F931F2091AE023091AF02F1
:1026B0002817390739F5D093AF02C093AE0274C022
:1026C000DB0140E050E0AC17BD0708F1BB83AA83F3
:1026D000FE0121913191E20FF31FAE17BF0779F48C
:1026E0008D919C911197280F391F2E5F3F4F398391
:1026F000288312968D919C9113979B838A83411511
:10270000510571F4D093B102C093B0024DC012963E
:102710008D919C911397AD01009711F0DC01D3CFFF
:10272000DA011396DC93CE931297FA01219131913D
:10273000E20FF31FCE17DF0769F488819981280F14
:10274000391F2E5F3F4FFA01318320838A819B819D
:1027500093838283E0E0F0E0DB0112968D919C91FF
:102760001397009719F0BC01FD01F6CFAB014E5F46
:102770005F4FDB018D919C91840F951F2091AE02DC
:102780003091AF022817390779F4309729F4109265
:10279000B1021092B00202C0138212824250504025
:1027A0005093AF024093AE02DF91CF9108956F92A4
:1027B0007F928F929F92AF92BF92CF92DF92EF92D1
:1027C000FF920F931F93CF93DF938C01009729F40F
:1027D000CB010E94A2128C01BBC08EEFE82E8FEFBE
:1027E000F82EE00EF11E4801860E971E8E149F04EF
:1027F00008F4ACC0D7014D915C911197461757076B
:10280000B8F04530510508F4A3C0CA0104978617F3
:10281000970708F49DC042505040461B570BF401E7
:10282000419351936D937C93CF010E943F1390C0CD
:102830005B01A41AB50A3801640E751EA091B0029E
:10284000B091B102E0E0F0E0CC24DD2447C0A61551
:10285000B705A9F5CD91DC911197CE0102968A15A5
:102860009B0568F1CE018A199B09029612962C915C
:10287000129713963C91059758F0F4012283338305
:10288000CA19DB09D183C083D7016D937C9309C03A
:102890004E5F5F4F4C0F5D1FF70151834083C901AD
:1028A000FC01C114D10431F0D6011396FC93EE93D0
:1028B00012974EC0F093B102E093B00249C08D91DF
:1028C0009C911197E817F90708F4FC016D01129625
:1028D0008C91129713969C919C01D901109709F045
:1028E000B6CF8091AE029091AF0286159705E9F4BC
:1028F000E617F707D0F4209110013091110121154E
:10290000310541F42DB73EB780910C0190910D0136
:10291000281B390B82169306C8F49092AF0280925E
:10292000AE02F7017183608313C0CB010E94A21233
:10293000EC01009759F0D7014D915C91B8010E94CC
:102940009F01C8010E943F138E0102C000E010E009
:10295000C801DF91CF911F910F91FF90EF90DF9011
:10296000CF90BF90AF909F908F907F906F90089581
:102970000895FC012485858530E0205C3F4F281BAD
:1029800031092F733070C9010895FC019485858544
:10299000981719F42FEF3FEF06C08585E80FF11D5A
:1029A0008685282F30E0C9010895DC011C969C9192
:1029B0001C971D968C911D97981719F42FEF3FEFD8
:1029C00010C01D968C911D97FD01E80FF11D968595
:1029D0001D968C911D978F5F8F731D968C93292F59
:1029E00030E0C9010895109256021092550288EE07
:1029F00093E0A0E0B0E08093570290935802A09338
:102A00005902B0935A0280E591E09093540280936A
:102A1000530208950F931F93DF93CF930F92CDB777
:102A2000DEB78C01698380911901882369F083E006
:102A3000BE016F5F7F4F41E050E00E94640F1816A7
:102A4000190614F49C0107C081E090E0F80193831B
:102A5000828320E030E0C9010F90CF91DF911F9178
:102A60000F91089583E00E943B0F08950F931F93E9
:102A7000CF93DF938C01FC010FC082E00E94210EF6
:102A80009C01FFEF8F3F9F0799F0F8018485E80FC5
:102A9000F11D2687F801C4878485C82FD0E02196D0
:102AA000CF73D070F801858590E0C817D90729F752
:102AB000DF91CF911F910F910895FC0180818E5F6E
:102AC000808380E861E971E042E450E00E943A0EC0
:102AD0000895FC0181819081913A59F4813209F085
:102AE0004CC080E062E171E047E050E00E943A0EA5
:102AF00042C0913209F041C0803239F482E191E064
:102B000067E070E00E94230F36C0823209F035C0C2
:102B10008281809319018091120190911301A091FB
:102B20001401B0911501805B9440A040B04019F5AC
:102B30008091190180FD12C087E797E79093010803
:102B4000809300082BE088E190E00FB6F894A895F8
:102B5000809360000FBE209360000DC088E10FB627
:102B6000F89480936000109260000FBEA8951092B8
:102B700001081092000881E0089580E00895FC01AA
:102B800091818081813A31F4913089F080E09330F5
:102B900089F40DC0813269F49B3021F482818093E5
:102BA0001A0105C09A3029F4828180931B0181E0CB
:102BB000089580E00895EF92FF920F931F938C0188
:102BC000E62EDC01ED91FC910480F581E02D099564
:102BD000F82ED801ED91FC910680F781E02DC80117
:102BE0006E2D09958F2D90E01F910F91FF90EF9022
:102BF00008951092A1021092A5021092A40282E6FA
:102C000091E09093A3028093A2020895EF92FF9225
:102C10000F931F93DF93CF930F92CDB7DEB78983C6
:102C20008B017A0184E0BE016F5F7F4F41E050E08D
:102C30000E94640F84E4B801A7010E94640F0F9002
:102C4000CF91DF911F910F91FF90EF90089582E057
:102C500048E050E00E9406160895FC011682178293
:102C6000108611861286138614823496BF010E9444
:102C700027160895DC01683810F0685829C0E62F3F
:102C8000F0E067FF13C0E058F04081E090E002C040
:102C9000880F991FEA95E2F7809514962C91149766
:102CA000282314962C93149760E012C0EF5AFD4F1E
:102CB0006491662319F420E030E01DC067FF08C06E
:102CC00014968C9114978D7F14968C9314976F772C
:102CD000FD0190E0662321F08681861709F41682B3
:102CE0009F5F31969630B1F7CD011496BD010E94D9
:102CF000271621E030E0C9010895CF93DF93DC016E
:102D0000683810F0685825C0E62FF0E067FF12C061
:102D1000E058F04081E090E002C0880F991FEA95EA
:102D2000E2F714962C911497282B14962C93149751
:102D300060E00FC0EF5AFD4F64916623D9F167FF41
:102D400008C014968C911497826014968C931497F3
:102D50006F7716968C9116978617A9F117968C9116
:102D60001797861781F118968C911897861759F145
:102D700019968C911997861731F11A968C911A979A
:102D8000861709F11B968C911B978617E1F0ED01D0
:102D9000E0E0F0E09E2F8E81882321F4EA0FFB1FF4
:102DA000668306C09F5F31962196E630F10591F764
:102DB000963049F481E090E013969C938E9312979D
:102DC00020E030E007C0CD011496BD010E94271617
:102DD00021E030E0C901DF91CF91089580E863EDF3
:102DE00071E045E650E00E943A0E0895FC018081B2
:102DF0008F5F808380E868E372E049E150E00E94E1
:102E00003A0E0895629FD001739FF001829FE00DFA
:102E1000F11D649FE00DF11D929FF00D839FF00D59
:102E2000749FF00D659FF00D9927729FB00DE11D05
:102E3000F91F639FB00DE11DF91FBD01CF011124E2
:102E40000895A1E21A2EAA1BBB1BFD010DC0AA1FEB
:102E5000BB1FEE1FFF1FA217B307E407F50720F003
:102E6000A21BB30BE40BF50B661F771F881F991F7E
:102E70001A9469F760957095809590959B01AC01C7
:102E8000BD01CF010895EE0FFF1F0590F491E02DD5
:102E9000099412E0C8EED2E004C0FE010E9445177A
:0C2EA0002296CA3ED107C9F7F894FFCF74
:102EAC0050495200310030004400FE008000B20254
:102EBC00000000E100000000000001015858313012
:102ECC0030585858585800000000A107FD076307F8
:102EDC00480731076E0700000000890BF70C2C0B1C
:102EEC00480B380B660B000000009C0C0000000027
:102EFC000A15F70CB914D514C51432153615000083
:0C2F0C000000DB15F70C7D163A162D16A0
:1070000055C000006EC000006CC000006AC00000E7
:1070100068C0000066C0000064C0000062C00000DC
:1070200060C000005EC00000FCC400005AC0000048
:1070300058C0000056C0000054C0000052C00000FC
:1070400050C000005DC000004CC000004AC00000FD
:1070500048C0000046C0000044C0000042C000001C
:1070600040C000003EC000003CC000003AC000002C
:1070700038C0000036C0000034C0000032C000003C
:1070800030C000002EC000002CC000002AC000004C
:1070900028C0000026C0000024C0000022C000005C
:1070A00020C000001EC000001CC0000011241FBE34
:1070B000CFEFDAE0DEBFCDBF11E0A0E0B1E0E6E463
:1070C000FFE702C005900D92A63AB107D9F711E08B
:1070D000A6EAB1E001C01D92AF3BB107E1F74FD383
:1070E00030C78ECFF89410926F001092810081E02B
:1070F00085BF15BE47985D9A289A0C9400000895A4
:107100001F920F920FB60F9211242F938F939F937C
:10711000EF93FF9310928500109284008091A60156
:107120009091A701009741F001979093A701809358
:10713000A601892B09F45D9A8091A8019091A9017B
:10714000009741F001979093A9018093A801892BA2
:1071500009F4289A8091AC019091AD010196909329
:10716000AD018093AC01E0E0F0E0859194918F5FF8
:107170009F4F49F08091AA019091AB0101969093A5
:10718000AB018093AA01FF91EF919F918F912F9175
:107190000F900FBE0F901F90189584E08093E90028
:1071A0000DC08091E8008B778093E80003C08EB318
:1071B000882351F08091E80082FFF9CF8091E800A8
:1071C00085FFEFCF8091F1000895982F83E08093A1
:1071D000E9008091E80085FD0DC08091E8008E7780
:1071E0008093E80003C08EB3882369F08091E800A3
:1071F00080FFF9CF9093F1005D9884E690E0909342
:10720000A7018093A60108954F925F926F927F929B
:107210008F929F92AF92BF92CF92DF92EF92FF92A6
:107220000F931F93CF93DF9384E08093E9008091C5
:10723000E80082FF57C2289884E690E09093A90165
:107240008093A801AADF182F853481F48CE49DE196
:107250009093AB018093AA0107B600FCFDCFF9998A
:10726000FECF81E180935700E89503C0843519F47F
:1072700094DF8DE00DC28C34E1F38035D1F3843797
:1072800021F484E4A2DF80E003C2813611F489E5B1
:10729000FFC18134B1F481DF182F7FDF90E0880FC8
:1072A000991FAA2797FDA095BA2F312F330F20E001
:1072B000442737FD4095542F822B932BA42BB52BBD
:1072C000B8C1803711F483E5E3C1833549F4C0E0E8
:1072D000D1E089917ADF21E0C730D207D1F7D9C157
:1072E000863521F481E371DF80E3D2C1833731F445
:1072F00087E86BDF85E969DF8EE1CAC18536B9F4BD
:10730000E0E0F0E093E085E090935700E89507B661
:1073100000FCFDCF80935700E89507B600FCFDCF39
:10732000E058FF4FA0E7E030FA0771F7A2CF8237AD
:1073300039F4E1E0F0E089E0809357008491A8C13E
:10734000863439F4E0E0F0E089E0809357008491DE
:107350009FC18E3439F4E3E0F0E089E08093570078
:10736000849196C1813539F4E2E0F0E089E08093C0
:10737000570084918DC1823631F489E526DF80E0A3
:1073800024DF80E885C1823419F0873609F0E5C032
:107390001092AB011092AA0100DF082FFEDEF82E3A
:1073A000FCDE682E8554823008F071C1902F80E099
:1073B000CF2DD0E0C82BD92B10926F00173609F0D3
:1073C0004BC081E180935700E895DD24CC24C39421
:1073D0003FC0E090AF01F090B0010091B101109179
:1073E000B201B6E46B16D9F4ED2DF0E0EE29FF29D9
:1073F000E4918E2FEADEDD2081F082E090E0A0E0D3
:10740000B0E0E80EF91E0A1F1B1FE092AF01F092D8
:10741000B0010093B1011093B201DC2418C0D8016F
:10742000C701B695A7959795879575D5CEDE82E06D
:1074300090E0A0E0B0E0E80EF91E0A1F1B1FE092EA
:10744000AF01F092B0010093B1011093B201219706
:10745000209709F0BECF7DC08090AF019090B00121
:10746000A090B101B090B20196E4691609F05DC038
:1074700083E0F40180935700E89507B600FCFDCF48
:1074800054C0F6E46F1661F5772031F1E090AF015A
:10749000F090B0010091B1011091B2017EDED82EC2
:1074A000CC24852D90E08C299D29F7010C01409278
:1074B0005700E895112482E090E0A0E0B0E0E80EEB
:1074C000F91E0A1F1B1FE092AF01F092B00100935A
:1074D000B1011093B20102C060DE582E742423C0A3
:1074E000E090AF01F090B0010091B1011091B201B4
:1074F00016950795F794E79450DE682FC70113D5CA
:107500008091AF019091B001A091B101B091B20111
:107510000296A11DB11D8093AF019093B001A0937D
:10752000B101B093B201219704C0552477244424BB
:107530004394209709F0A5CF96E4691641F485E0BD
:10754000F40180935700E89507B600FCFDCF8DE06D
:107550003CDE82E080936F009CC0833471F4009124
:10756000AF011091B00119DE90E021E0F8010C01AB
:1075700020935700E89511247CCE833619F5E090CE
:10758000AF01F090B0010091B1011091B20105DEA0
:10759000F701E16090E021E00C0120935700E895AD
:1075A000112482E090E0A0E0B0E0E80EF91E0A1F8E
:1075B0001B1FE092AF01F092B0010093B101109354
:1075C000B20157CE8D3661F4E091AF01F091B00178
:1075D00085E080935700E89507B600FCFDCF49CEC3
:1075E000823551F4E091AF01F091B0010591149111
:1075F000812FEBDD802F4CC0843421F5E090AF016A
:10760000F090B0010091B1011091B201169507956B
:10761000F794E794C2DD682FC70185D48091AF014C
:107620009091B001A091B101B091B2010296A11D5B
:10763000B11D8093AF019093B001A093B101B093BD
:10764000B20117CE843609F5E090AF01F090B00199
:107650000091B1011091B201D801C701B695A7956B
:107660009795879558D4B1DD82E090E0A0E0B0E036
:10767000E80EF91E0A1F1B1FE092AF01F092B00145
:107680000093B1011093B20104C08B3111F08FE36C
:107690009CDD83E08093E9009091E8008091E80010
:1076A0008E778093E80095FF04C010C08EB38823C6
:1076B000C9F08091E80080FFF9CF8091E8008E77D3
:1076C0008093E80003C08EB3882361F08091E800C6
:1076D00080FFF9CF84E08093E9008091E8008B7708
:1076E0008093E800DF91CF911F910F91FF90EF9071
:1076F000DF90CF90BF90AF909F908F907F906F90D2
:107700005F904F9008959091B701892F8F778132C4
:1077100049F58091B8018032A1F0813219F5913A92
:1077200009F58091E800877F8093E8008CE091E084
:1077300067E070E027D28091E8008B778093E800C3
:107740000895913279F48091E800877F8093E80072
:107750008CE091E067E070E079D28091E8008E776C
:107760008093E800089582E061EC42E0D1D083E0AC
:1077700061E842E1CDD084E060E842E1C9C01F93F6
:10778000209100081092000844B714BE88E10FB69B
:10779000F89480936000109260000FBE80E8E0E0F3
:1077A000F0E00FB6F89480936100E09361000FBEA3
:1077B00031E035BF92E095BF3F9A209A559A809369
:1077C00061001092610047985D9A289A1092890092
:1077D0008AEF8093880090936F0083E0809381000C
:1077E000859194918F5F9F4F11F03093AE01942F4C
:1077F00041FF19C0809109012817A9F08093000862
:10780000789480911301882339F08091AC01909194
:10781000AD018F5E9240C8F310920008F89481E0A9
:10782000809313010CC090FF04C08091AE018823A7
:1078300051F493FF09C080910901281729F0809124
:10784000AE01882309F04EDCD4D078941092AB01BD
:107850001092AA011EEF20C0D7DC4BD38091AA0161
:107860009091AB0181549F4110F0109213018091CF
:10787000B3019091B40101969093B4018093B30148
:10788000292F97FF03C0512F591B252F220F28178F
:1078900010F4479801C0479A809113018823E1F6BC
:1078A0008091E00081608093E0001CDC80E090E04B
:1078B0001F910895FA01923049F0933061F09130B0
:1078C000F9F484E191E022E130E01EC086E291E02B
:1078D0002EE330E019C0882329F484E691E024E007
:1078E00030E012C0813029F488E691E022E230E0F5
:1078F0000BC0823029F48CE891E028E130E004C02C
:1079000080E090E020E030E091838083C901089519
:107910008093E9008091EB0081608093EB001092EE
:10792000ED006093EC004093ED008091EE00881F25
:107930008827881F08958091B70188238CF403C09D
:107940008EB38823B1F08091E80082FFF9CF809157
:10795000E8008B778093E80008958EB3882349F080
:107960008091E80080FFF9CF8091E8008E778093C6
:10797000E8000895EF92FF920F931F9345D04CD0EB
:1079800008ED10E0F80180818F7780838081806826
:10799000808380818F7D808319BC1EBA1092B501CF
:1079A00080EEE82EF12CF70180818B7F8083F80137
:1079B00080818160808380E060E042E0A9DFE1EEC9
:1079C000F0E080818E7F8083E2EEF0E08081816054
:1079D0008083808188608083F70180818E7F8083AF
:1079E000F8018081806180831F910F91FF90EF905B
:1079F0000895E7EDF0E08081816080838AE482BFB2
:107A000081E08093B601B6CFE8EDF0E080818E7F13
:107A100080831092E20008951092DA001092E10043
:107A200008951F920F920FB60F9211242F933F9338
:107A30004F935F936F937F938F939F93AF93BF9376
:107A4000EF93FF938091DA0080FF1BC08091D800F4
:107A500080FF17C08091DA008E7F8093DA008091DA
:107A6000D90080FF0BC080E189BD82E189BD09B4E6
:107A700000FEFDCF81E08EBB3BD203C019BC1EBA15
:107A800037D28091E10080FF17C08091E20080FF33
:107A900013C08091E2008E7F8093E2008091E2002B
:107AA00080618093E2008091D80080628093D8004A
:107AB00019BC85E08EBB1CD28091E10084FF2CC0F4
:107AC0008091E20084FF28C080E189BD82E189BD08
:107AD00009B400FEFDCF8091D8008F7D8093D8003F
:107AE0008091E1008F7E8093E1008091E2008F7EA3
:107AF0008093E2008091E20081608093E2008091B7
:107B0000B501882331F48091E30087FD02C081E054
:107B100001C084E08EBBECD18091E10083FF21C0E5
:107B20008091E20083FF1DC08091E100877F8093F8
:107B3000E10082E08EBB1092B5018091E1008E7F62
:107B40008093E1008091E2008E7F8093E20080913B
:107B5000E20080618093E20080E060E042E0D8DEF5
:107B6000C7D1FF91EF91BF91AF919F918F917F917D
:107B70006F915F914F913F912F910F900FBE0F909A
:107B80001F9018959C014091BD015091BE01461770
:107B9000570718F4F90190E044C06115710511F020
:107BA000AB01F8CF8091E8008E778093E80040E049
:107BB00050E0F0CF8EB3882309F444C0853009F437
:107BC00043C08091E80083FF02C081E00895809166
:107BD000E80082FD31C08091E80080FF22C08091E2
:107BE000F3009091F200782F60E0292F30E0262BEF
:107BF000372B07C081918093F100415050402F5F97
:107C00003F4F4115510519F02830310598F390E0A8
:107C10002830310509F491E08091E8008E77809357
:107C2000E8004115510531F6992321F605C08EB3C0
:107C3000882341F0853041F08091E80082FFF7CF42
:107C400080E0089582E0089583E008959C01611525
:107C5000710529F48091E8008B778093E800F901A1
:107C600026C08EB3882391F1853091F18091E80090
:107C700083FF02C081E008958091E80082FFF1CF88
:107C800006C08091F10081936150704059F02091BD
:107C9000F3008091F200322F20E090E0822B932BB2
:107CA000892B79F78091E8008B778093E800611544
:107CB0007105B9F605C08EB3882341F0853041F0D7
:107CC0008091E80080FFF7CF80E0089582E008957A
:107CD00083E008950F931F93DF93CF9300D0CDB728
:107CE000DEB7E7EBF1E08091F100819381E0EF3BBB
:107CF000F807C9F708DD8091E80083FFE4C08091B0
:107D0000B7019091B801953009F46DC0963040F4F8
:107D1000913081F1913070F0933009F0D4C02AC0D5
:107D2000983009F4A3C0993009F4B2C0963009F034
:107D3000CAC07CC0803809F4C6C0823809F0C3C00C
:107D40008091BB0187708093E9008091EB001092D5
:107D5000E9002091E800277F2093E80090E025E0EB
:107D6000969587952A95E1F781708093F10010929E
:107D7000F10087C0882319F0823009F0A4C08F7108
:107D8000823009F0A0C08091B901882331F520919B
:107D9000BB01277009F497C02093E9008091EB00A4
:107DA00080FF1BC0933021F48091EB00806213C0F0
:107DB0008091EB0080618093EB0081E090E002C055
:107DC000880F991F2A95E2F78093EA001092EA0043
:107DD0008091EB0088608093EB001092E900809125
:107DE000E800877F51C0882309F06DC01091B90168
:107DF0001F770FB7F8948091E800877F8093E800A1
:107E00009ADD8091E80080FFFCCF8091E3008078CC
:107E1000812B8093E30080688093E300112311F4A9
:107E200082E001C083E08EBB0FBF4DC0805882301E
:107E300008F049C08091B9019091BA016091BB01ED
:107E4000AE014F5F5F4F36DDBC01009709F43BC0C8
:107E50008091E800877F8093E80089819A8192DE93
:107E60008091E8008B778093E8002DC0803859F529
:107E70008091E800877F8093E8008091B50180932E
:107E8000F1008091E8008E778093E80054DD1BC0FC
:107E90008823C9F49091B9019230A8F48091E80048
:107EA000877F8093E8009093B50145DD8091B5010F
:107EB000882331F48091E30087FD02C081E001C096
:107EC00084E08EBB50DC8091E80083FF0AC0809183
:107ED000EB0080628093EB008091E800877F8093C5
:107EE000E8000F900F90CF91DF911F910F910895AF
:107EF00008951F938EB3882361F01091E9001092CA
:107F0000E9008091E80083FF01C0E4DE1770109360
:107F1000E9001F910895F999FECF92BD81BDF89AAD
:107F2000992780B50895262FF999FECF1FBA92BDE3
:107F300081BD20BD0FB6F894FA9AF99A0FBE01964A
:067F40000895F894FFCF44
:107F46004341544552494E41007700080000000065
:107F5600000008011201100102000008412341003F
:107F660001000201000109023E00020100803209FF
:107F7600040000010202010005240010010424028D
:107F8600040524060001070582030800FF09040111
:107F960000020A000000070504021000010705831D
:107FA6000210000104030904220341007200640068
:107FB600750069006E006F002000590075006E00A4
:107FC60020002000200020002000000018034100AF
:107FD60072006400750069006E006F0020004C009E
:067FE6004C004300000006
:040000030000700089
:00000001FF
